{
  "_format": "hh-sol-artifact-1",
  "contractName": "Co2Token",
  "sourceName": "contracts/Co2Token.sol",
  "abi": [
    {
      "inputs": [],
      "stateMutability": "nonpayable",
      "type": "constructor"
    },
    {
      "inputs": [
        {
          "internalType": "address",
          "name": "spender",
          "type": "address"
        },
        {
          "internalType": "uint256",
          "name": "allowance",
          "type": "uint256"
        },
        {
          "internalType": "uint256",
          "name": "needed",
          "type": "uint256"
        }
      ],
      "name": "ERC20InsufficientAllowance",
      "type": "error"
    },
    {
      "inputs": [
        {
          "internalType": "address",
          "name": "sender",
          "type": "address"
        },
        {
          "internalType": "uint256",
          "name": "balance",
          "type": "uint256"
        },
        {
          "internalType": "uint256",
          "name": "needed",
          "type": "uint256"
        }
      ],
      "name": "ERC20InsufficientBalance",
      "type": "error"
    },
    {
      "inputs": [
        {
          "internalType": "address",
          "name": "approver",
          "type": "address"
        }
      ],
      "name": "ERC20InvalidApprover",
      "type": "error"
    },
    {
      "inputs": [
        {
          "internalType": "address",
          "name": "receiver",
          "type": "address"
        }
      ],
      "name": "ERC20InvalidReceiver",
      "type": "error"
    },
    {
      "inputs": [
        {
          "internalType": "address",
          "name": "sender",
          "type": "address"
        }
      ],
      "name": "ERC20InvalidSender",
      "type": "error"
    },
    {
      "inputs": [
        {
          "internalType": "address",
          "name": "spender",
          "type": "address"
        }
      ],
      "name": "ERC20InvalidSpender",
      "type": "error"
    },
    {
      "anonymous": false,
      "inputs": [
        {
          "indexed": true,
          "internalType": "address",
          "name": "owner",
          "type": "address"
        },
        {
          "indexed": true,
          "internalType": "address",
          "name": "spender",
          "type": "address"
        },
        {
          "indexed": false,
          "internalType": "uint256",
          "name": "value",
          "type": "uint256"
        }
      ],
      "name": "Approval",
      "type": "event"
    },
    {
      "anonymous": false,
      "inputs": [
        {
          "indexed": true,
          "internalType": "address",
          "name": "from",
          "type": "address"
        },
        {
          "indexed": true,
          "internalType": "address",
          "name": "to",
          "type": "address"
        },
        {
          "indexed": false,
          "internalType": "uint256",
          "name": "value",
          "type": "uint256"
        }
      ],
      "name": "Transfer",
      "type": "event"
    },
    {
      "inputs": [],
      "name": "EmissionsInGramm",
      "outputs": [
        {
          "internalType": "uint256",
          "name": "",
          "type": "uint256"
        }
      ],
      "stateMutability": "view",
      "type": "function"
    },
    {
      "inputs": [],
      "name": "EmissionsInKilogramm",
      "outputs": [
        {
          "internalType": "uint256",
          "name": "",
          "type": "uint256"
        }
      ],
      "stateMutability": "view",
      "type": "function"
    },
    {
      "inputs": [
        {
          "internalType": "address",
          "name": "owner",
          "type": "address"
        },
        {
          "internalType": "address",
          "name": "spender",
          "type": "address"
        }
      ],
      "name": "allowance",
      "outputs": [
        {
          "internalType": "uint256",
          "name": "",
          "type": "uint256"
        }
      ],
      "stateMutability": "view",
      "type": "function"
    },
    {
      "inputs": [
        {
          "internalType": "address",
          "name": "spender",
          "type": "address"
        },
        {
          "internalType": "uint256",
          "name": "value",
          "type": "uint256"
        }
      ],
      "name": "approve",
      "outputs": [
        {
          "internalType": "bool",
          "name": "",
          "type": "bool"
        }
      ],
      "stateMutability": "nonpayable",
      "type": "function"
    },
    {
      "inputs": [
        {
          "internalType": "address",
          "name": "account",
          "type": "address"
        }
      ],
      "name": "balanceOf",
      "outputs": [
        {
          "internalType": "uint256",
          "name": "",
          "type": "uint256"
        }
      ],
      "stateMutability": "view",
      "type": "function"
    },
    {
      "inputs": [],
      "name": "decimals",
      "outputs": [
        {
          "internalType": "uint8",
          "name": "",
          "type": "uint8"
        }
      ],
      "stateMutability": "view",
      "type": "function"
    },
    {
      "inputs": [
        {
          "internalType": "address",
          "name": "user",
          "type": "address"
        }
      ],
      "name": "getCurrentAverageCosts",
      "outputs": [
        {
          "internalType": "uint256",
          "name": "",
          "type": "uint256"
        }
      ],
      "stateMutability": "view",
      "type": "function"
    },
    {
      "inputs": [
        {
          "internalType": "address",
          "name": "user",
          "type": "address"
        }
      ],
      "name": "getEnergyCosts",
      "outputs": [
        {
          "internalType": "uint256",
          "name": "",
          "type": "uint256"
        }
      ],
      "stateMutability": "view",
      "type": "function"
    },
    {
      "inputs": [],
      "name": "name",
      "outputs": [
        {
          "internalType": "string",
          "name": "",
          "type": "string"
        }
      ],
      "stateMutability": "view",
      "type": "function"
    },
    {
      "inputs": [
        {
          "internalType": "uint256",
          "name": "_userInputCosts",
          "type": "uint256"
        }
      ],
      "name": "reportEnergyCosts",
      "outputs": [],
      "stateMutability": "payable",
      "type": "function"
    },
    {
      "inputs": [],
      "name": "symbol",
      "outputs": [
        {
          "internalType": "string",
          "name": "",
          "type": "string"
        }
      ],
      "stateMutability": "view",
      "type": "function"
    },
    {
      "inputs": [],
      "name": "totalSupply",
      "outputs": [
        {
          "internalType": "uint256",
          "name": "",
          "type": "uint256"
        }
      ],
      "stateMutability": "view",
      "type": "function"
    },
    {
      "inputs": [
        {
          "internalType": "address",
          "name": "to",
          "type": "address"
        },
        {
          "internalType": "uint256",
          "name": "value",
          "type": "uint256"
        }
      ],
      "name": "transfer",
      "outputs": [
        {
          "internalType": "bool",
          "name": "",
          "type": "bool"
        }
      ],
      "stateMutability": "nonpayable",
      "type": "function"
    },
    {
      "inputs": [
        {
          "internalType": "address",
          "name": "from",
          "type": "address"
        },
        {
          "internalType": "address",
          "name": "to",
          "type": "address"
        },
        {
          "internalType": "uint256",
          "name": "value",
          "type": "uint256"
        }
      ],
      "name": "transferFrom",
      "outputs": [
        {
          "internalType": "bool",
          "name": "",
          "type": "bool"
        }
      ],
      "stateMutability": "nonpayable",
      "type": "function"
    },
    {
      "inputs": [],
      "name": "updateInterval",
      "outputs": [
        {
          "internalType": "uint256",
          "name": "",
          "type": "uint256"
        }
      ],
      "stateMutability": "view",
      "type": "function"
    }
  ],
  "bytecode": "0x608060405260056009553480156200001657600080fd5b506040518060400160405280600881526020017f436f32546f6b656e0000000000000000000000000000000000000000000000008152506040518060400160405280600381526020017f436f320000000000000000000000000000000000000000000000000000000000815250816003908162000094919062000691565b508060049081620000a6919062000691565b50505033600b60006101000a81548173ffffffffffffffffffffffffffffffffffffffff021916908373ffffffffffffffffffffffffffffffffffffffff1602179055506200014b600b60009054906101000a900473ffffffffffffffffffffffffffffffffffffffff16620001216200015160201b60201c565b600a6200012f919062000908565b626acfc06200013f919062000959565b6200015a60201b60201c565b62000aac565b60006012905090565b600073ffffffffffffffffffffffffffffffffffffffff168273ffffffffffffffffffffffffffffffffffffffff1603620001cf5760006040517fec442f05000000000000000000000000000000000000000000000000000000008152600401620001c69190620009e9565b60405180910390fd5b620001e360008383620001e760201b60201c565b5050565b600073ffffffffffffffffffffffffffffffffffffffff168373ffffffffffffffffffffffffffffffffffffffff16036200023d57806002600082825462000230919062000a06565b9250508190555062000313565b60008060008573ffffffffffffffffffffffffffffffffffffffff1673ffffffffffffffffffffffffffffffffffffffff16815260200190815260200160002054905081811015620002cc578381836040517fe450d38c000000000000000000000000000000000000000000000000000000008152600401620002c39392919062000a52565b60405180910390fd5b8181036000808673ffffffffffffffffffffffffffffffffffffffff1673ffffffffffffffffffffffffffffffffffffffff16815260200190815260200160002081905550505b600073ffffffffffffffffffffffffffffffffffffffff168273ffffffffffffffffffffffffffffffffffffffff16036200035e5780600260008282540392505081905550620003ab565b806000808473ffffffffffffffffffffffffffffffffffffffff1673ffffffffffffffffffffffffffffffffffffffff168152602001908152602001600020600082825401925050819055505b8173ffffffffffffffffffffffffffffffffffffffff168373ffffffffffffffffffffffffffffffffffffffff167fddf252ad1be2c89b69c2b068fc378daa952ba7f163c4a11628f55a4df523b3ef836040516200040a919062000a8f565b60405180910390a3505050565b600081519050919050565b7f4e487b7100000000000000000000000000000000000000000000000000000000600052604160045260246000fd5b7f4e487b7100000000000000000000000000000000000000000000000000000000600052602260045260246000fd5b600060028204905060018216806200049957607f821691505b602082108103620004af57620004ae62000451565b5b50919050565b60008190508160005260206000209050919050565b60006020601f8301049050919050565b600082821b905092915050565b600060088302620005197fffffffffffffffffffffffffffffffffffffffffffffffffffffffffffffffff82620004da565b620005258683620004da565b95508019841693508086168417925050509392505050565b6000819050919050565b6000819050919050565b6000620005726200056c62000566846200053d565b62000547565b6200053d565b9050919050565b6000819050919050565b6200058e8362000551565b620005a66200059d8262000579565b848454620004e7565b825550505050565b600090565b620005bd620005ae565b620005ca81848462000583565b505050565b5b81811015620005f257620005e6600082620005b3565b600181019050620005d0565b5050565b601f82111562000641576200060b81620004b5565b6200061684620004ca565b8101602085101562000626578190505b6200063e6200063585620004ca565b830182620005cf565b50505b505050565b600082821c905092915050565b6000620006666000198460080262000646565b1980831691505092915050565b600062000681838362000653565b9150826002028217905092915050565b6200069c8262000417565b67ffffffffffffffff811115620006b857620006b762000422565b5b620006c4825462000480565b620006d1828285620005f6565b600060209050601f831160018114620007095760008415620006f4578287015190505b62000700858262000673565b86555062000770565b601f1984166200071986620004b5565b60005b8281101562000743578489015182556001820191506020850194506020810190506200071c565b868310156200076357848901516200075f601f89168262000653565b8355505b6001600288020188555050505b505050505050565b7f4e487b7100000000000000000000000000000000000000000000000000000000600052601160045260246000fd5b60008160011c9050919050565b6000808291508390505b60018511156200080657808604811115620007de57620007dd62000778565b5b6001851615620007ee5780820291505b8081029050620007fe85620007a7565b9450620007be565b94509492505050565b600082620008215760019050620008f4565b81620008315760009050620008f4565b81600181146200084a576002811462000855576200088b565b6001915050620008f4565b60ff8411156200086a576200086962000778565b5b8360020a91508482111562000884576200088362000778565b5b50620008f4565b5060208310610133831016604e8410600b8410161715620008c55782820a905083811115620008bf57620008be62000778565b5b620008f4565b620008d48484846001620007b4565b92509050818404811115620008ee57620008ed62000778565b5b81810290505b9392505050565b600060ff82169050919050565b600062000915826200053d565b91506200092283620008fb565b9250620009517fffffffffffffffffffffffffffffffffffffffffffffffffffffffffffffffff84846200080f565b905092915050565b600062000966826200053d565b915062000973836200053d565b925082820262000983816200053d565b915082820484148315176200099d576200099c62000778565b5b5092915050565b600073ffffffffffffffffffffffffffffffffffffffff82169050919050565b6000620009d182620009a4565b9050919050565b620009e381620009c4565b82525050565b600060208201905062000a006000830184620009d8565b92915050565b600062000a13826200053d565b915062000a20836200053d565b925082820190508082111562000a3b5762000a3a62000778565b5b92915050565b62000a4c816200053d565b82525050565b600060608201905062000a696000830186620009d8565b62000a78602083018562000a41565b62000a87604083018462000a41565b949350505050565b600060208201905062000aa6600083018462000a41565b92915050565b611da28062000abc6000396000f3fe6080604052600436106100fe5760003560e01c806344461327116100955780638da5cb5b116100645780638da5cb5b1461035757806395d89b4114610382578063a9059cbb146103ad578063dd62ed3e146103ea578063fd2c80ae14610427576100fe565b806344461327146102755780635d5bc026146102b25780635f49f974146102ef57806370a082311461031a576100fe565b806323b872dd116100d157806323b872dd146101c6578063313ce5671461020357806338f2904d1461022e57806343cba85214610259576100fe565b806306ef37851461010357806306fdde0314610133578063095ea7b31461015e57806318160ddd1461019b575b600080fd5b61011d60048036038101906101189190611607565b610452565b60405161012a9190611643565b60405180910390f35b34801561013f57600080fd5b50610148610484565b60405161015591906116ee565b60405180910390f35b34801561016a57600080fd5b506101856004803603810190610180919061176e565b610516565b60405161019291906117c9565b60405180910390f35b3480156101a757600080fd5b506101b0610539565b6040516101bd9190611643565b60405180910390f35b3480156101d257600080fd5b506101ed60048036038101906101e891906117e4565b610543565b6040516101fa91906117c9565b60405180910390f35b34801561020f57600080fd5b50610218610572565b6040516102259190611853565b60405180910390f35b34801561023a57600080fd5b5061024361057b565b6040516102509190611643565b60405180910390f35b610273600480360381019061026e9190611607565b6105c8565b005b34801561028157600080fd5b5061029c6004803603810190610297919061186e565b610c9b565b6040516102a99190611643565b60405180910390f35b3480156102be57600080fd5b506102d960048036038101906102d4919061186e565b610cf7565b6040516102e69190611643565b60405180910390f35b3480156102fb57600080fd5b50610304610d53565b6040516103119190611643565b60405180910390f35b34801561032657600080fd5b50610341600480360381019061033c919061186e565b610d7a565b60405161034e9190611643565b60405180910390f35b34801561036357600080fd5b5061036c610dc2565b60405161037991906118bc565b60405180910390f35b34801561038e57600080fd5b50610397610de8565b6040516103a491906116ee565b60405180910390f35b3480156103b957600080fd5b506103d460048036038101906103cf919061176e565b610e7a565b6040516103e191906117c9565b60405180910390f35b3480156103f657600080fd5b50610411600480360381019061040c91906118d7565b610e9d565b60405161041e9190611643565b60405180910390f35b34801561043357600080fd5b5061043c610f24565b6040516104499190611643565b60405180910390f35b600061047c33610460610572565b600a61046c9190611a79565b846104779190611ac4565b610f2a565b819050919050565b60606003805461049390611b35565b80601f01602080910402602001604051908101604052809291908181526020018280546104bf90611b35565b801561050c5780601f106104e15761010080835404028352916020019161050c565b820191906000526020600020905b8154815290600101906020018083116104ef57829003601f168201915b5050505050905090565b600080610521610fac565b905061052e818585610fb4565b600191505092915050565b6000600254905090565b60008061054e610fac565b905061055b858285610fc6565b61056685858561105a565b60019150509392505050565b60006012905090565b600080602a6064600a5461058f9190611ac4565b6105999190611b95565b905060006101b2826105ab9190611ac4565b9050670de0b6b3a7640000816105c19190611b95565b9250505090565b6105d0610572565b600a6105dc9190611a79565b816105e79190611ac4565b600a81905550600954600560003373ffffffffffffffffffffffffffffffffffffffff1673ffffffffffffffffffffffffffffffffffffffff1681526020019081526020016000205461063a9190611bc6565b42101561067c576040517f08c379a000000000000000000000000000000000000000000000000000000000815260040161067390611c46565b60405180910390fd5b60008080600760003373ffffffffffffffffffffffffffffffffffffffff1673ffffffffffffffffffffffffffffffffffffffff168152602001908152602001600020541115610b4a57600860003373ffffffffffffffffffffffffffffffffffffffff1673ffffffffffffffffffffffffffffffffffffffff168152602001908152602001600020549050600a54600660003373ffffffffffffffffffffffffffffffffffffffff1673ffffffffffffffffffffffffffffffffffffffff16815260200190815260200160002060008282546107599190611bc6565b92505081905550600760003373ffffffffffffffffffffffffffffffffffffffff1673ffffffffffffffffffffffffffffffffffffffff16815260200190815260200160002060008154809291906107b090611c66565b9190505550600760003373ffffffffffffffffffffffffffffffffffffffff1673ffffffffffffffffffffffffffffffffffffffff16815260200190815260200160002054600660003373ffffffffffffffffffffffffffffffffffffffff1673ffffffffffffffffffffffffffffffffffffffff1681526020019081526020016000205461083f9190611b95565b600860003373ffffffffffffffffffffffffffffffffffffffff1673ffffffffffffffffffffffffffffffffffffffff1681526020019081526020016000208190555080600860003373ffffffffffffffffffffffffffffffffffffffff1673ffffffffffffffffffffffffffffffffffffffff168152602001908152602001600020541015610938576000816064600860003373ffffffffffffffffffffffffffffffffffffffff1673ffffffffffffffffffffffffffffffffffffffff16815260200190815260200160002054846109199190611cae565b6109239190611ac4565b61092d9190611b95565b905080925050610b45565b80600860003373ffffffffffffffffffffffffffffffffffffffff1673ffffffffffffffffffffffffffffffffffffffff168152602001908152602001600020540361098757600a9150610b44565b80600860003373ffffffffffffffffffffffffffffffffffffffff1673ffffffffffffffffffffffffffffffffffffffff168152602001908152602001600020541115610b4357600081606483600860003373ffffffffffffffffffffffffffffffffffffffff1673ffffffffffffffffffffffffffffffffffffffff16815260200190815260200160002054610a1e9190611cae565b610a289190611ac4565b610a329190611b95565b905060148110610b415760006064610a4933610d7a565b83610a549190611ac4565b610a5e9190611b95565b9050610a6933610d7a565b811115610b3457600a54600660003373ffffffffffffffffffffffffffffffffffffffff1673ffffffffffffffffffffffffffffffffffffffff1681526020019081526020016000206000828254610ac19190611cae565b92505081905550600760003373ffffffffffffffffffffffffffffffffffffffff1673ffffffffffffffffffffffffffffffffffffffff1681526020019081526020016000206000815480929190610b1890611ce2565b9190505550610b2f33610b2a33610d7a565b61114e565b610b3f565b610b3e338261114e565b5b505b505b5b5b610c20565b600a54600660003373ffffffffffffffffffffffffffffffffffffffff1673ffffffffffffffffffffffffffffffffffffffff168152602001908152602001600020819055506001600760003373ffffffffffffffffffffffffffffffffffffffff1673ffffffffffffffffffffffffffffffffffffffff16815260200190815260200160002081905550600a54600860003373ffffffffffffffffffffffffffffffffffffffff1673ffffffffffffffffffffffffffffffffffffffff16815260200190815260200160002081905550606491505b6000821115610c5257610c5133610c35610572565b600a610c419190611a79565b84610c4c9190611ac4565b610f2a565b5b42600560003373ffffffffffffffffffffffffffffffffffffffff1673ffffffffffffffffffffffffffffffffffffffff16815260200190815260200160002081905550505050565b6000670de0b6b3a7640000600860008473ffffffffffffffffffffffffffffffffffffffff1673ffffffffffffffffffffffffffffffffffffffff16815260200190815260200160002054610cf09190611b95565b9050919050565b6000670de0b6b3a7640000600660008473ffffffffffffffffffffffffffffffffffffffff1673ffffffffffffffffffffffffffffffffffffffff16815260200190815260200160002054610d4c9190611b95565b9050919050565b600080610d5e61057b565b905060006103e882610d709190611b95565b9050809250505090565b60008060008373ffffffffffffffffffffffffffffffffffffffff1673ffffffffffffffffffffffffffffffffffffffff168152602001908152602001600020549050919050565b600b60009054906101000a900473ffffffffffffffffffffffffffffffffffffffff1681565b606060048054610df790611b35565b80601f0160208091040260200160405190810160405280929190818152602001828054610e2390611b35565b8015610e705780601f10610e4557610100808354040283529160200191610e70565b820191906000526020600020905b815481529060010190602001808311610e5357829003601f168201915b5050505050905090565b600080610e85610fac565b9050610e9281858561105a565b600191505092915050565b6000600160008473ffffffffffffffffffffffffffffffffffffffff1673ffffffffffffffffffffffffffffffffffffffff16815260200190815260200160002060008373ffffffffffffffffffffffffffffffffffffffff1673ffffffffffffffffffffffffffffffffffffffff16815260200190815260200160002054905092915050565b60095481565b600073ffffffffffffffffffffffffffffffffffffffff168273ffffffffffffffffffffffffffffffffffffffff1603610f9c5760006040517fec442f05000000000000000000000000000000000000000000000000000000008152600401610f939190611d1a565b60405180910390fd5b610fa8600083836111d0565b5050565b600033905090565b610fc183838360016113f5565b505050565b6000610fd28484610e9d565b90507fffffffffffffffffffffffffffffffffffffffffffffffffffffffffffffffff81146110545781811015611044578281836040517ffb8f41b200000000000000000000000000000000000000000000000000000000815260040161103b93929190611d35565b60405180910390fd5b611053848484840360006113f5565b5b50505050565b600073ffffffffffffffffffffffffffffffffffffffff168373ffffffffffffffffffffffffffffffffffffffff16036110cc5760006040517f96c6fd1e0000000000000000000000000000000000000000000000000000000081526004016110c39190611d1a565b60405180910390fd5b600073ffffffffffffffffffffffffffffffffffffffff168273ffffffffffffffffffffffffffffffffffffffff160361113e5760006040517fec442f050000000000000000000000000000000000000000000000000000000081526004016111359190611d1a565b60405180910390fd5b6111498383836111d0565b505050565b600073ffffffffffffffffffffffffffffffffffffffff168273ffffffffffffffffffffffffffffffffffffffff16036111c05760006040517f96c6fd1e0000000000000000000000000000000000000000000000000000000081526004016111b79190611d1a565b60405180910390fd5b6111cc826000836111d0565b5050565b600073ffffffffffffffffffffffffffffffffffffffff168373ffffffffffffffffffffffffffffffffffffffff16036112225780600260008282546112169190611bc6565b925050819055506112f5565b60008060008573ffffffffffffffffffffffffffffffffffffffff1673ffffffffffffffffffffffffffffffffffffffff168152602001908152602001600020549050818110156112ae578381836040517fe450d38c0000000000000000000000000000000000000000000000000000000081526004016112a593929190611d35565b60405180910390fd5b8181036000808673ffffffffffffffffffffffffffffffffffffffff1673ffffffffffffffffffffffffffffffffffffffff16815260200190815260200160002081905550505b600073ffffffffffffffffffffffffffffffffffffffff168273ffffffffffffffffffffffffffffffffffffffff160361133e578060026000828254039250508190555061138b565b806000808473ffffffffffffffffffffffffffffffffffffffff1673ffffffffffffffffffffffffffffffffffffffff168152602001908152602001600020600082825401925050819055505b8173ffffffffffffffffffffffffffffffffffffffff168373ffffffffffffffffffffffffffffffffffffffff167fddf252ad1be2c89b69c2b068fc378daa952ba7f163c4a11628f55a4df523b3ef836040516113e89190611643565b60405180910390a3505050565b600073ffffffffffffffffffffffffffffffffffffffff168473ffffffffffffffffffffffffffffffffffffffff16036114675760006040517fe602df0500000000000000000000000000000000000000000000000000000000815260040161145e9190611d1a565b60405180910390fd5b600073ffffffffffffffffffffffffffffffffffffffff168373ffffffffffffffffffffffffffffffffffffffff16036114d95760006040517f94280d620000000000000000000000000000000000000000000000000000000081526004016114d09190611d1a565b60405180910390fd5b81600160008673ffffffffffffffffffffffffffffffffffffffff1673ffffffffffffffffffffffffffffffffffffffff16815260200190815260200160002060008573ffffffffffffffffffffffffffffffffffffffff1673ffffffffffffffffffffffffffffffffffffffff1681526020019081526020016000208190555080156115c6578273ffffffffffffffffffffffffffffffffffffffff168473ffffffffffffffffffffffffffffffffffffffff167f8c5be1e5ebec7d5bd14f71427d1e84f3dd0314c0f7b2291e5b200ac8c7c3b925846040516115bd9190611643565b60405180910390a35b50505050565b600080fd5b6000819050919050565b6115e4816115d1565b81146115ef57600080fd5b50565b600081359050611601816115db565b92915050565b60006020828403121561161d5761161c6115cc565b5b600061162b848285016115f2565b91505092915050565b61163d816115d1565b82525050565b60006020820190506116586000830184611634565b92915050565b600081519050919050565b600082825260208201905092915050565b60005b8381101561169857808201518184015260208101905061167d565b60008484015250505050565b6000601f19601f8301169050919050565b60006116c08261165e565b6116ca8185611669565b93506116da81856020860161167a565b6116e3816116a4565b840191505092915050565b6000602082019050818103600083015261170881846116b5565b905092915050565b600073ffffffffffffffffffffffffffffffffffffffff82169050919050565b600061173b82611710565b9050919050565b61174b81611730565b811461175657600080fd5b50565b60008135905061176881611742565b92915050565b60008060408385031215611785576117846115cc565b5b600061179385828601611759565b92505060206117a4858286016115f2565b9150509250929050565b60008115159050919050565b6117c3816117ae565b82525050565b60006020820190506117de60008301846117ba565b92915050565b6000806000606084860312156117fd576117fc6115cc565b5b600061180b86828701611759565b935050602061181c86828701611759565b925050604061182d868287016115f2565b9150509250925092565b600060ff82169050919050565b61184d81611837565b82525050565b60006020820190506118686000830184611844565b92915050565b600060208284031215611884576118836115cc565b5b600061189284828501611759565b91505092915050565b60006118a682611710565b9050919050565b6118b68161189b565b82525050565b60006020820190506118d160008301846118ad565b92915050565b600080604083850312156118ee576118ed6115cc565b5b60006118fc85828601611759565b925050602061190d85828601611759565b9150509250929050565b7f4e487b7100000000000000000000000000000000000000000000000000000000600052601160045260246000fd5b60008160011c9050919050565b6000808291508390505b600185111561199d5780860481111561197957611978611917565b5b60018516156119885780820291505b808102905061199685611946565b945061195d565b94509492505050565b6000826119b65760019050611a72565b816119c45760009050611a72565b81600181146119da57600281146119e457611a13565b6001915050611a72565b60ff8411156119f6576119f5611917565b5b8360020a915084821115611a0d57611a0c611917565b5b50611a72565b5060208310610133831016604e8410600b8410161715611a485782820a905083811115611a4357611a42611917565b5b611a72565b611a558484846001611953565b92509050818404811115611a6c57611a6b611917565b5b81810290505b9392505050565b6000611a84826115d1565b9150611a8f83611837565b9250611abc7fffffffffffffffffffffffffffffffffffffffffffffffffffffffffffffffff84846119a6565b905092915050565b6000611acf826115d1565b9150611ada836115d1565b9250828202611ae8816115d1565b91508282048414831517611aff57611afe611917565b5b5092915050565b7f4e487b7100000000000000000000000000000000000000000000000000000000600052602260045260246000fd5b60006002820490506001821680611b4d57607f821691505b602082108103611b6057611b5f611b06565b5b50919050565b7f4e487b7100000000000000000000000000000000000000000000000000000000600052601260045260246000fd5b6000611ba0826115d1565b9150611bab836115d1565b925082611bbb57611bba611b66565b5b828204905092915050565b6000611bd1826115d1565b9150611bdc836115d1565b9250828201905080821115611bf457611bf3611917565b5b92915050565b7f43616e6e6f742075706461746520636f73747320796574000000000000000000600082015250565b6000611c30601783611669565b9150611c3b82611bfa565b602082019050919050565b60006020820190508181036000830152611c5f81611c23565b9050919050565b6000611c71826115d1565b91507fffffffffffffffffffffffffffffffffffffffffffffffffffffffffffffffff8203611ca357611ca2611917565b5b600182019050919050565b6000611cb9826115d1565b9150611cc4836115d1565b9250828203905081811115611cdc57611cdb611917565b5b92915050565b6000611ced826115d1565b915060008203611d0057611cff611917565b5b600182039050919050565b611d1481611730565b82525050565b6000602082019050611d2f6000830184611d0b565b92915050565b6000606082019050611d4a6000830186611d0b565b611d576020830185611634565b611d646040830184611634565b94935050505056fea26469706673582212207aef9cb0f87d22858e63a7c119832d1c63e890e06e5f566ca5bd1bc080bb11db64736f6c63430008140033",
  "linkReferences": {},
  "deployedLinkReferences": {}
}